:100000000EEF00F00000000000EF00F00000000024
:0A0010000000000000000000F3D71C
:10001C00926A936A946A956A896A8A6A8B6A8C6A0C
:10002C00896A8A6A8B6A8C6A1A0E0B6E5E0E0C6E6B
:10003C006E0E0D6E0D2EFED70C2EFCD70B2EFAD796
:10004C000000FF0E896EFF0E8A6EFF0E8B6EFF0E88
:10005C008C6E1A0E0B6E5E0E0C6E6E0E0D6E0D2EE1
:10006C00FED70C2EFCD70B2EFAD70000D9D7FFD712
:020000040030CA
:0E000000000C1F1EFF8381FF0FC00FE00F409A
:00000001FF
